{
  "contractName": "Title",
  "abi": [
    {
      "inputs": [],
      "payable": false,
      "stateMutability": "nonpayable",
      "type": "constructor"
    },
    {
      "anonymous": false,
      "inputs": [
        {
          "indexed": false,
          "name": "ssn",
          "type": "uint16"
        },
        {
          "indexed": false,
          "name": "adr",
          "type": "address"
        }
      ],
      "name": "identity_mismatch",
      "type": "event"
    },
    {
      "anonymous": false,
      "inputs": [
        {
          "indexed": false,
          "name": "pid",
          "type": "uint16"
        },
        {
          "indexed": false,
          "name": "ssn",
          "type": "uint16"
        }
      ],
      "name": "property_mismatch",
      "type": "event"
    },
    {
      "constant": false,
      "inputs": [
        {
          "name": "ssn",
          "type": "uint16"
        }
      ],
      "name": "register_ssn",
      "outputs": [],
      "payable": false,
      "stateMutability": "nonpayable",
      "type": "function"
    },
    {
      "constant": false,
      "inputs": [
        {
          "name": "pid",
          "type": "uint16"
        },
        {
          "name": "ssn",
          "type": "uint16"
        }
      ],
      "name": "resgister_pid",
      "outputs": [],
      "payable": false,
      "stateMutability": "nonpayable",
      "type": "function"
    },
    {
      "constant": false,
      "inputs": [
        {
          "name": "pid",
          "type": "uint16"
        },
        {
          "name": "ssn",
          "type": "uint16"
        },
        {
          "name": "buyer",
          "type": "uint16"
        }
      ],
      "name": "transfer_pid",
      "outputs": [],
      "payable": false,
      "stateMutability": "nonpayable",
      "type": "function"
    },
    {
      "constant": true,
      "inputs": [],
      "name": "get_properties_length",
      "outputs": [
        {
          "name": "length",
          "type": "uint256"
        }
      ],
      "payable": false,
      "stateMutability": "view",
      "type": "function"
    },
    {
      "constant": true,
      "inputs": [],
      "name": "get_owner",
      "outputs": [
        {
          "name": "own",
          "type": "address"
        }
      ],
      "payable": false,
      "stateMutability": "view",
      "type": "function"
    },
    {
      "constant": true,
      "inputs": [
        {
          "name": "index",
          "type": "uint256"
        }
      ],
      "name": "get_pid",
      "outputs": [
        {
          "name": "pid",
          "type": "uint16"
        },
        {
          "name": "ssn",
          "type": "uint16"
        }
      ],
      "payable": false,
      "stateMutability": "view",
      "type": "function"
    },
    {
      "constant": true,
      "inputs": [
        {
          "name": "pid",
          "type": "uint16"
        }
      ],
      "name": "get_ssn",
      "outputs": [
        {
          "name": "ssn",
          "type": "uint16"
        }
      ],
      "payable": false,
      "stateMutability": "view",
      "type": "function"
    }
  ],
  "bytecode": "0x608060405234801561001057600080fd5b50336000806101000a81548173ffffffffffffffffffffffffffffffffffffffff021916908373ffffffffffffffffffffffffffffffffffffffff160217905550610861806100606000396000f300608060405260043610610083576000357c0100000000000000000000000000000000000000000000000000000000900463ffffffff1680630ac298dc146100885780631ab94d16146100df57806398ebbf6314610137578063a67e1d3514610176578063ae6ee42a146101c3578063daf8da90146101f4578063e362f72c1461021f575b600080fd5b34801561009457600080fd5b5061009d61026c565b604051808273ffffffffffffffffffffffffffffffffffffffff1673ffffffffffffffffffffffffffffffffffffffff16815260200191505060405180910390f35b3480156100eb57600080fd5b5061010a60048036038101908080359060200190929190505050610295565b604051808361ffff1661ffff1681526020018261ffff1661ffff1681526020019250505060405180910390f35b34801561014357600080fd5b50610174600480360381019080803561ffff169060200190929190803561ffff169060200190929190505050610317565b005b34801561018257600080fd5b506101c1600480360381019080803561ffff169060200190929190803561ffff169060200190929190803561ffff169060200190929190505050610512565b005b3480156101cf57600080fd5b506101f2600480360381019080803561ffff1690602001909291905050506106c4565b005b34801561020057600080fd5b506102096107f5565b6040518082815260200191505060405180910390f35b34801561022b57600080fd5b5061024e600480360381019080803561ffff169060200190929190505050610802565b604051808261ffff1661ffff16815260200191505060405180910390f35b60008060009054906101000a900473ffffffffffffffffffffffffffffffffffffffff16905090565b600080600380549050831015156102ab57600080fd5b6003838154811015156102ba57fe5b90600052602060002090601091828204019190066002029054906101000a900461ffff169150600260008361ffff1661ffff16815260200190815260200160002060009054906101000a900461ffff169050818191509150915091565b3373ffffffffffffffffffffffffffffffffffffffff16600160008361ffff1661ffff16815260200190815260200160002060009054906101000a900473ffffffffffffffffffffffffffffffffffffffff1673ffffffffffffffffffffffffffffffffffffffff161415156103ff577ffcf894c2fdf909d339f17942825af0dc9352f7bb209d16c2402c4b7a8fb199968133604051808361ffff1661ffff1681526020018273ffffffffffffffffffffffffffffffffffffffff1673ffffffffffffffffffffffffffffffffffffffff1681526020019250505060405180910390a161050e565b6000600260008461ffff1661ffff16815260200190815260200160002060009054906101000a900461ffff1661ffff1614151561048a577fec321f83320fae6ee6f7cbf8c940aebf0214cecc7ba36efbb13d693e8f1a527e8282604051808361ffff1661ffff1681526020018261ffff1661ffff1681526020019250505060405180910390a161050e565b600382908060018154018082558091505090600182039060005260206000209060109182820401919006600202909192909190916101000a81548161ffff021916908361ffff1602179055505080600260008461ffff1661ffff16815260200190815260200160002060006101000a81548161ffff021916908361ffff1602179055505b5050565b3373ffffffffffffffffffffffffffffffffffffffff16600160008461ffff1661ffff16815260200190815260200160002060009054906101000a900473ffffffffffffffffffffffffffffffffffffffff1673ffffffffffffffffffffffffffffffffffffffff161415156105fa577ffcf894c2fdf909d339f17942825af0dc9352f7bb209d16c2402c4b7a8fb199968233604051808361ffff1661ffff1681526020018273ffffffffffffffffffffffffffffffffffffffff1673ffffffffffffffffffffffffffffffffffffffff1681526020019250505060405180910390a16106bf565b8161ffff16600260008561ffff1661ffff16815260200190815260200160002060009054906101000a900461ffff1661ffff16141515610688577fec321f83320fae6ee6f7cbf8c940aebf0214cecc7ba36efbb13d693e8f1a527e8383604051808361ffff1661ffff1681526020018261ffff1661ffff1681526020019250505060405180910390a16106bf565b80600260008561ffff1661ffff16815260200190815260200160002060006101000a81548161ffff021916908361ffff1602179055505b505050565b6000600160008361ffff1661ffff16815260200190815260200160002060009054906101000a900473ffffffffffffffffffffffffffffffffffffffff1673ffffffffffffffffffffffffffffffffffffffff16141515610797577ffcf894c2fdf909d339f17942825af0dc9352f7bb209d16c2402c4b7a8fb199968133604051808361ffff1661ffff1681526020018273ffffffffffffffffffffffffffffffffffffffff1673ffffffffffffffffffffffffffffffffffffffff1681526020019250505060405180910390a16107f2565b33600160008361ffff1661ffff16815260200190815260200160002060006101000a81548173ffffffffffffffffffffffffffffffffffffffff021916908373ffffffffffffffffffffffffffffffffffffffff1602179055505b50565b6000600380549050905090565b6000600260008361ffff1661ffff16815260200190815260200160002060009054906101000a900461ffff1690509190505600a165627a7a72305820f0a8a4e4df0547ad19ab52042b075118a60b0bd6c62a4c56cde029e3a5f5ddac0029",
  "source": "pragma solidity ^0.4.24;\r\n\r\ncontract Title{\r\n    \r\n    address owner;\r\n    mapping(uint16 => address) private identity;\r\n    mapping(uint16 => uint16) private asset;\r\n    uint16[] properties ;\r\n\r\n    event identity_mismatch(uint16 ssn, address adr);\r\n    event property_mismatch(uint16 pid, uint16 ssn);\r\n\r\n    constructor() public{\r\n        owner = msg.sender;\r\n    }\r\n\r\n    function register_ssn(uint16 ssn) public{\r\n        if (identity[ssn] != 0){\r\n            emit identity_mismatch(ssn,msg.sender);\r\n            return;\r\n        }\r\n        identity[ssn] = msg.sender;\r\n        //owner.transfer(500);\r\n    }\r\n\r\n    function resgister_pid(uint16 pid, uint16 ssn) public{\r\n        if (identity[ssn] != msg.sender){\r\n            emit identity_mismatch(ssn,msg.sender);\r\n            return;\r\n        }\r\n        if(asset[pid] != 0){\r\n            emit property_mismatch(pid,ssn);\r\n            return;\r\n        }\r\n        properties.push(pid);\r\n        asset[pid] = ssn;\r\n    }\r\n\r\n    function transfer_pid(uint16 pid, uint16 ssn, uint16 buyer) public{\r\n        if (identity[ssn] != msg.sender){\r\n            emit identity_mismatch(ssn,msg.sender);\r\n            return;\r\n        }\r\n        if(asset[pid] != ssn){\r\n            emit property_mismatch(pid,ssn);\r\n            return;\r\n        }\r\n        asset[pid] = buyer;\r\n    }\r\n\r\n    function get_properties_length() public view returns(uint length){\r\n        return properties.length;\r\n    }\r\n\r\n    function get_owner() public view returns(address own){\r\n        return owner;\r\n    }\r\n\r\n    function get_pid(uint index) public view returns(uint16 pid, uint16 ssn){\r\n        require(index < properties.length);\r\n\t\tpid = properties[index];\r\n\t\tssn = asset[pid];\r\n        return (pid,ssn);\r\n    }\r\n\r\n    function get_ssn(uint16 pid) public view returns(uint16 ssn){\r\n        return asset[pid];\r\n    }\r\n\r\n}",
  "sourcePath": "/F/Projects/TitleTransfer/contracts/Title.sol",
  "compiler": {
    "name": "solc",
    "version": "0.4.24+commit.e67f0147.Emscripten.clang"
  },
  "schemaVersion": "2.0.1",
  "updatedAt": "2018-11-09T17:39:06.588Z"
}